{
  "contractName": "EthBox",
  "abi": [
    {
      "payable": true,
      "stateMutability": "payable",
      "type": "fallback"
    },
    {
      "constant": false,
      "inputs": [],
      "name": "withdraw",
      "outputs": [],
      "payable": false,
      "stateMutability": "nonpayable",
      "type": "function"
    },
    {
      "constant": false,
      "inputs": [
        {
          "name": "beneficiary",
          "type": "address"
        }
      ],
      "name": "deposit",
      "outputs": [],
      "payable": true,
      "stateMutability": "payable",
      "type": "function"
    }
  ],
  "bytecode": "0x608060405234801561001057600080fd5b506102f9806100206000396000f30060806040526004361061004c576000357c0100000000000000000000000000000000000000000000000000000000900463ffffffff1680633ccfd60b14610057578063f340fa011461006e575b610055336100a4565b005b34801561006357600080fd5b5061006c6101f1565b005b6100a2600480360381019080803573ffffffffffffffffffffffffffffffffffffffff1690602001909291905050506100a4565b005b600073ffffffffffffffffffffffffffffffffffffffff166000809054906101000a900473ffffffffffffffffffffffffffffffffffffffff1673ffffffffffffffffffffffffffffffffffffffff16148061014c57506000809054906101000a900473ffffffffffffffffffffffffffffffffffffffff1673ffffffffffffffffffffffffffffffffffffffff168173ffffffffffffffffffffffffffffffffffffffff16145b151561015757600080fd5b8073ffffffffffffffffffffffffffffffffffffffff166000809054906101000a900473ffffffffffffffffffffffffffffffffffffffff1673ffffffffffffffffffffffffffffffffffffffff161415156101ee57806000806101000a81548173ffffffffffffffffffffffffffffffffffffffff021916908373ffffffffffffffffffffffffffffffffffffffff1602179055505b50565b6000809054906101000a900473ffffffffffffffffffffffffffffffffffffffff1673ffffffffffffffffffffffffffffffffffffffff163373ffffffffffffffffffffffffffffffffffffffff1614151561024c57600080fd5b6000809054906101000a900473ffffffffffffffffffffffffffffffffffffffff1673ffffffffffffffffffffffffffffffffffffffff166108fc3073ffffffffffffffffffffffffffffffffffffffff16319081150290604051600060405180830381858888f193505050501580156102ca573d6000803e3d6000fd5b505600a165627a7a72305820d65080f28f1caa3df02da56d296e6df908eac54e28813c3f6cf4c1519c88d1990029",
  "source": "pragma solidity ^0.4.24;\n\ncontract EthBox {\n  address owner;\n\n  function withdraw() public {\n    require(msg.sender == owner);\n    owner.transfer(address(this).balance);\n  }\n\n  function deposit(address beneficiary) payable public {\n    require(owner == address(0) || beneficiary == owner);\n    if (owner != beneficiary) owner = beneficiary;\n  }\n\n  function () payable public{\n    deposit(msg.sender);\n  }\n}\n\n",
  "sourcePath": "dep-basic/contracts/EthBox.sol",
  "compiler": {
    "name": "solc",
    "version": "0.4.24+commit.e67f0147.Emscripten.clang"
  },
  "schemaVersion": "2.0.1",
  "updatedAt": "2018-08-22T21:06:14.933Z"
}