{
  "fileName": "TokenExchange.sol",
  "contractName": "TokenExchange",
  "source": "pragma solidity ^0.5.0;\n\nimport \"zos-lib/contracts/Initializable.sol\";\nimport \"openzeppelin-eth/contracts/token/ERC20/IERC20.sol\";\nimport \"openzeppelin-eth/contracts/math/SafeMath.sol\";\n\ncontract TokenExchange is Initializable {\n  using SafeMath for uint256;\n\n  uint256 public rate;\n  IERC20 public token;\n\n  function initialize(uint256 _rate, IERC20 _token) public initializer {\n    rate = _rate;\n    token = _token;\n  }\n\n  function() external payable {\n    uint256 tokens = msg.value.mul(rate);\n    token.transfer(msg.sender, tokens);\n  }\n} \n",
  "sourcePath": "contracts/TokenExchange.sol",
  "abi": [
    {
      "constant": true,
      "inputs": [],
      "name": "rate",
      "outputs": [
        {
          "name": "",
          "type": "uint256"
        }
      ],
      "payable": false,
      "stateMutability": "view",
      "type": "function"
    },
    {
      "constant": false,
      "inputs": [
        {
          "name": "_rate",
          "type": "uint256"
        },
        {
          "name": "_token",
          "type": "address"
        }
      ],
      "name": "initialize",
      "outputs": [],
      "payable": false,
      "stateMutability": "nonpayable",
      "type": "function"
    },
    {
      "constant": true,
      "inputs": [],
      "name": "token",
      "outputs": [
        {
          "name": "",
          "type": "address"
        }
      ],
      "payable": false,
      "stateMutability": "view",
      "type": "function"
    },
    {
      "payable": true,
      "stateMutability": "payable",
      "type": "fallback"
    }
  ],
  "bytecode": "0x608060405234801561001057600080fd5b50610435806100206000396000f3fe6080604052600436106100345760003560e01c80632c4e722e14610135578063da35a26f14610160578063fc0c546a146101bb575b600061004b6033543461021290919063ffffffff16565b9050603460009054906101000a900473ffffffffffffffffffffffffffffffffffffffff1673ffffffffffffffffffffffffffffffffffffffff1663a9059cbb33836040518363ffffffff1660e01b8152600401808373ffffffffffffffffffffffffffffffffffffffff1673ffffffffffffffffffffffffffffffffffffffff16815260200182815260200192505050602060405180830381600087803b1580156100f657600080fd5b505af115801561010a573d6000803e3d6000fd5b505050506040513d602081101561012057600080fd5b81019080805190602001909291905050505050005b34801561014157600080fd5b5061014a61024c565b6040518082815260200191505060405180910390f35b34801561016c57600080fd5b506101b96004803603604081101561018357600080fd5b8101908080359060200190929190803573ffffffffffffffffffffffffffffffffffffffff169060200190929190505050610252565b005b3480156101c757600080fd5b506101d061039b565b604051808273ffffffffffffffffffffffffffffffffffffffff1673ffffffffffffffffffffffffffffffffffffffff16815260200191505060405180910390f35b6000808314156102255760009050610246565b600082840290508284828161023657fe5b041461024157600080fd5b809150505b92915050565b60335481565b600060019054906101000a900460ff168061027157506102706103c1565b5b8061028857506000809054906101000a900460ff16155b6102dd576040517f08c379a000000000000000000000000000000000000000000000000000000000815260040180806020018281038252602e8152602001806103d3602e913960400191505060405180910390fd5b60008060019054906101000a900460ff16159050801561032d576001600060016101000a81548160ff02191690831515021790555060016000806101000a81548160ff0219169083151502179055505b8260338190555081603460006101000a81548173ffffffffffffffffffffffffffffffffffffffff021916908373ffffffffffffffffffffffffffffffffffffffff16021790555080156103965760008060016101000a81548160ff0219169083151502179055505b505050565b603460009054906101000a900473ffffffffffffffffffffffffffffffffffffffff1681565b600080303b9050600081149150509056fe436f6e747261637420696e7374616e63652068617320616c7265616479206265656e20696e697469616c697a6564a265627a7a72305820fc2ab87098c86dfe079a1481f0d1206326ca97baa097044762f79dce89e7e0ab64736f6c63430005090032",
  "compiler": {
    "name": "solc",
    "version": "0.5.9+commit.c68bc34e.Linux.g++",
    "optimizer": {
      "enabled": false
    },
    "evmVersion": "constantinople"
  }
}