{"fileName":"TokenExchange.sol","contractName":"TokenExchange","source":"pragma solidity ^0.5.0;\n\nimport \"zos-lib/contracts/Initializable.sol\";\nimport \"openzeppelin-eth/contracts/token/ERC20/IERC20.sol\";\nimport \"openzeppelin-eth/contracts/math/SafeMath.sol\";\n\ncontract TokenExchange is Initializable {\n  using SafeMath for uint256;\n\n  uint256 public rate;\n  IERC20 public token;\n\n  function initialize(uint256 _rate, IERC20 _token) public initializer {\n    rate = _rate;\n    token = _token;\n  }\n\n  function() external payable {\n    uint256 tokens = msg.value.mul(rate);\n    token.transfer(msg.sender, tokens);\n  }\n\n  // Added on subsequent version!\n  address public owner;\n\n  function withdraw() public {\n    require(msg.sender == owner);\n    msg.sender.transfer(address(this).balance);\n  }\n\n  function setOwner(address _owner) public {\n    require(owner == address(0));\n    owner = _owner;\n  }\n} \n","sourcePath":"contracts/TokenExchange.sol","abi":[{"constant":false,"inputs":[{"name":"_owner","type":"address"}],"name":"setOwner","outputs":[],"payable":false,"stateMutability":"nonpayable","type":"function"},{"constant":true,"inputs":[],"name":"rate","outputs":[{"name":"","type":"uint256"}],"payable":false,"stateMutability":"view","type":"function"},{"constant":false,"inputs":[],"name":"withdraw","outputs":[],"payable":false,"stateMutability":"nonpayable","type":"function"},{"constant":true,"inputs":[],"name":"owner","outputs":[{"name":"","type":"address"}],"payable":false,"stateMutability":"view","type":"function"},{"constant":false,"inputs":[{"name":"_rate","type":"uint256"},{"name":"_token","type":"address"}],"name":"initialize","outputs":[],"payable":false,"stateMutability":"nonpayable","type":"function"},{"constant":true,"inputs":[],"name":"token","outputs":[{"name":"","type":"address"}],"payable":false,"stateMutability":"view","type":"function"},{"payable":true,"stateMutability":"payable","type":"fallback"}],"bytecode":"0x60806040523480156100115760006000fd5b50610017565b6106d9806100266000396000f3fe6080604052600436106100595760003560e01c806313af4035146101625780632c4e722e146101b55780633ccfd60b146101e15780638da5cb5b146101f9578063da35a26f14610251578063fc0c546a146102ae57610059565b5b60006100746033600050543461030690919063ffffffff16565b9050603460009054906101000a900473ffffffffffffffffffffffffffffffffffffffff1673ffffffffffffffffffffffffffffffffffffffff1663a9059cbb33836040518363ffffffff1660e01b8152600401808373ffffffffffffffffffffffffffffffffffffffff1673ffffffffffffffffffffffffffffffffffffffff16815260200182815260200192505050602060405180830381600087803b1580156101205760006000fd5b505af1158015610135573d600060003e3d6000fd5b505050506040513d602081101561014c5760006000fd5b810190808051906020019092919050505050505b005b34801561016f5760006000fd5b506101b3600480360360208110156101875760006000fd5b81019080803573ffffffffffffffffffffffffffffffffffffffff16906020019092919050505061034b565b005b3480156101c25760006000fd5b506101cb6103ee565b6040518082815260200191505060405180910390f35b3480156101ee5760006000fd5b506101f76103f7565b005b3480156102065760006000fd5b5061020f6104b6565b604051808273ffffffffffffffffffffffffffffffffffffffff1673ffffffffffffffffffffffffffffffffffffffff16815260200191505060405180910390f35b34801561025e5760006000fd5b506102ac600480360360408110156102765760006000fd5b8101908080359060200190929190803573ffffffffffffffffffffffffffffffffffffffff1690602001909291905050506104dc565b005b3480156102bb5760006000fd5b506102c4610638565b604051808273ffffffffffffffffffffffffffffffffffffffff1673ffffffffffffffffffffffffffffffffffffffff16815260200191505060405180910390f35b6000600083141561031a5760009050610345565b6000828402905082848281151561032d57fe5b0414151561033b5760006000fd5b8091505061034556505b92915050565b600073ffffffffffffffffffffffffffffffffffffffff16603560009054906101000a900473ffffffffffffffffffffffffffffffffffffffff1673ffffffffffffffffffffffffffffffffffffffff161415156103a95760006000fd5b80603560006101000a81548173ffffffffffffffffffffffffffffffffffffffff021916908373ffffffffffffffffffffffffffffffffffffffff1602179055505b50565b60336000505481565b603560009054906101000a900473ffffffffffffffffffffffffffffffffffffffff1673ffffffffffffffffffffffffffffffffffffffff163373ffffffffffffffffffffffffffffffffffffffff161415156104545760006000fd5b3373ffffffffffffffffffffffffffffffffffffffff166108fc3073ffffffffffffffffffffffffffffffffffffffff16319081150290604051600060405180830381858888f193505050501580156104b2573d600060003e3d6000fd5b505b565b603560009054906101000a900473ffffffffffffffffffffffffffffffffffffffff1681565b600060019054906101000a900460ff1680610501575061050061065e63ffffffff16565b5b806105195750600060009054906101000a900460ff16155b1515610570576040517f08c379a000000000000000000000000000000000000000000000000000000000815260040180806020018281038252602e815260200180610677602e913960400191505060405180910390fd5b6000600060019054906101000a900460ff1615905080156105c2576001600060016101000a81548160ff0219169083151502179055506001600060006101000a81548160ff0219169083151502179055505b82603360005081909090555081603460006101000a81548173ffffffffffffffffffffffffffffffffffffffff021916908373ffffffffffffffffffffffffffffffffffffffff1602179055505b8015610632576000600060016101000a81548160ff0219169083151502179055505b505b5050565b603460009054906101000a900473ffffffffffffffffffffffffffffffffffffffff1681565b60006000303b90506000811491505061067356505b9056fe436f6e747261637420696e7374616e63652068617320616c7265616479206265656e20696e697469616c697a6564a265627a7a723058207df3d60fa6aeb4ac8e9f7a47bbcd76b55f946aa93511e7a952c0d6051f323c2164736f6c63430005090032","compiler":{"name":"solc","version":"0.5.9+commit.c68bc34e.Linux.g++","optimizer":{},"evmVersion":"constantinople"}}