{
  "contractName": "SharedNumbers",
  "abi": [
    {
      "constant": true,
      "inputs": [
        {
          "name": "self",
          "type": "uint256"
        }
      ],
      "name": "triple",
      "outputs": [
        {
          "name": "",
          "type": "uint256"
        }
      ],
      "payable": false,
      "stateMutability": "pure",
      "type": "function"
    }
  ],
  "bytecode": "0x60c661002f600b82828239805160001a6073146000811461001f57610021565bfe5b5030600052607381538281f30073000000000000000000000000000000000000000030146080604052600436106056576000357c0100000000000000000000000000000000000000000000000000000000900463ffffffff168063f40a049d14605b575b600080fd5b607760048036038101908080359060200190929190505050608d565b6040518082815260200191505060405180910390f35b60006003820290509190505600a165627a7a72305820e80cf66711d49c574cb44c64390dd5f3093441a01ce247522a954c4ff614c7470029",
  "source": "pragma solidity ^0.4.24;\n\nlibrary SharedNumbers {\n  function triple(uint256 self) public pure returns (uint256) {\n    return self * 3;\n  }\n}",
  "sourcePath": "/home/spalladino/Projects/zeppelinos/zos/tests/cli-app/dependencies/mock-stdlib-1.1.0/contracts/SharedLibrary.sol",
  "compiler": {
    "name": "solc",
    "version": "0.4.24+commit.e67f0147.Emscripten.clang"
  },
  "schemaVersion": "2.0.1",
  "updatedAt": "2018-10-12T10:21:17.277Z"
}