{
  "contractName": "Greeter",
  "abi": [
    {
      "anonymous": false,
      "inputs": [
        {
          "indexed": false,
          "name": "greeting",
          "type": "string"
        }
      ],
      "name": "Greeting",
      "type": "event"
    },
    {
      "constant": false,
      "inputs": [
        {
          "name": "who",
          "type": "string"
        }
      ],
      "name": "greet",
      "outputs": [],
      "payable": false,
      "stateMutability": "nonpayable",
      "type": "function"
    },
    {
      "constant": true,
      "inputs": [
        {
          "name": "who",
          "type": "string"
        }
      ],
      "name": "greeting",
      "outputs": [
        {
          "name": "",
          "type": "string"
        }
      ],
      "payable": false,
      "stateMutability": "pure",
      "type": "function"
    },
    {
      "constant": true,
      "inputs": [],
      "name": "say",
      "outputs": [
        {
          "name": "",
          "type": "string"
        }
      ],
      "payable": false,
      "stateMutability": "pure",
      "type": "function"
    }
  ],
  "bytecode": "0x608060405234801561001057600080fd5b50610351806100206000396000f300608060405260043610610057576000357c0100000000000000000000000000000000000000000000000000000000900463ffffffff168063954ab4b21461005c578063ead710c4146100ec578063f8194e4814610155575b600080fd5b34801561006857600080fd5b50610071610237565b6040518080602001828103825283818151815260200191508051906020019080838360005b838110156100b1578082015181840152602081019050610096565b50505050905090810190601f1680156100de5780820380516001836020036101000a031916815260200191505b509250505060405180910390f35b3480156100f857600080fd5b50610153600480360381019080803590602001908201803590602001908080601f0160208091040260200160405190810160405280939291908181526020018383808284378201915050505050509192919290505050610274565b005b34801561016157600080fd5b506101bc600480360381019080803590602001908201803590602001908080601f016020809104026020016040519081016040528093929190818152602001838380828437820191505050505050919291929050505061031b565b6040518080602001828103825283818151815260200191508051906020019080838360005b838110156101fc5780820151818401526020810190506101e1565b50505050905090810190601f1680156102295780820380516001836020036101000a031916815260200191505b509250505060405180910390f35b60606040805190810160405280600581526020017f68656c6c6f000000000000000000000000000000000000000000000000000000815250905090565b7fa5263230ff6fc3abbbad333e24faf0f402b4e050b83a1d30ad4051f4e5d0f72761029e8261031b565b6040518080602001828103825283818151815260200191508051906020019080838360005b838110156102de5780820151818401526020810190506102c3565b50505050905090810190601f16801561030b5780820380516001836020036101000a031916815260200191505b509250505060405180910390a150565b60608190509190505600a165627a7a72305820008c530a7ea11ffe746134e0017089a86f5c97932e9695eaa08abf00fc48a9fa0029",
  "source": "pragma solidity ^0.4.21;\n\ncontract Greeter {\n  event Greeting(string greeting);\n\n  function greet(string who) public {\n    emit Greeting(greeting(who));\n  }\n\n  function greeting(string who) public pure returns (string) {\n    return who;\n  }\n\n  function say() public pure returns (string) {\n    return \"hello\";\n  }\n}\n",
  "sourcePath": "/Users/facu/Documents/Laburo/Zeppelin/ZeppelinOS/kernel/test/mocks/mock-stdlib/contracts/Greeter.sol",
  "compiler": {
    "name": "solc",
    "version": "0.4.23+commit.124ca40d.Emscripten.clang"
  },
  "schemaVersion": "2.0.0",
  "updatedAt": "2018-05-15T17:45:39.049Z"
}