{
  "contractName": "GreeterImpl",
  "abi": [
    {
      "anonymous": false,
      "inputs": [
        {
          "indexed": false,
          "name": "greeting",
          "type": "string"
        }
      ],
      "name": "Greeting",
      "type": "event"
    },
    {
      "constant": false,
      "inputs": [
        {
          "name": "who",
          "type": "string"
        }
      ],
      "name": "greet",
      "outputs": [],
      "payable": false,
      "stateMutability": "nonpayable",
      "type": "function"
    },
    {
      "constant": true,
      "inputs": [
        {
          "name": "who",
          "type": "string"
        }
      ],
      "name": "greeting",
      "outputs": [
        {
          "name": "",
          "type": "string"
        }
      ],
      "payable": false,
      "stateMutability": "pure",
      "type": "function"
    },
    {
      "constant": true,
      "inputs": [],
      "name": "version",
      "outputs": [
        {
          "name": "",
          "type": "string"
        }
      ],
      "payable": false,
      "stateMutability": "pure",
      "type": "function"
    }
  ],
  "bytecode": "0x608060405234801561001057600080fd5b506104b3806100206000396000f300608060405260043610610057576000357c0100000000000000000000000000000000000000000000000000000000900463ffffffff16806354fd4d501461005c578063ead710c4146100ec578063f8194e4814610155575b600080fd5b34801561006857600080fd5b50610071610237565b6040518080602001828103825283818151815260200191508051906020019080838360005b838110156100b1578082015181840152602081019050610096565b50505050905090810190601f1680156100de5780820380516001836020036101000a031916815260200191505b509250505060405180910390f35b3480156100f857600080fd5b50610153600480360381019080803590602001908201803590602001908080601f0160208091040260200160405190810160405280939291908181526020018383808284378201915050505050509192919290505050610274565b005b34801561016157600080fd5b506101bc600480360381019080803590602001908201803590602001908080601f016020809104026020016040519081016040528093929190818152602001838380828437820191505050505050919291929050505061031b565b6040518080602001828103825283818151815260200191508051906020019080838360005b838110156101fc5780820151818401526020810190506101e1565b50505050905090810190601f1680156102295780820380516001836020036101000a031916815260200191505b509250505060405180910390f35b60606040805190810160405280600581526020017f312e312e30000000000000000000000000000000000000000000000000000000815250905090565b7fa5263230ff6fc3abbbad333e24faf0f402b4e050b83a1d30ad4051f4e5d0f72761029e8261031b565b6040518080602001828103825283818151815260200191508051906020019080838360005b838110156102de5780820151818401526020810190506102c3565b50505050905090810190601f16801561030b5780820380516001836020036101000a031916815260200191505b509250505060405180910390a150565b60608173__GreeterLib____________________________637689b21f90916040518263ffffffff167c01000000000000000000000000000000000000000000000000000000000281526004018080602001828103825283818151815260200191508051906020019080838360005b838110156103a557808201518184015260208101905061038a565b50505050905090810190601f1680156103d25780820380516001836020036101000a031916815260200191505b509250505060006040518083038186803b1580156103ef57600080fd5b505af4158015610403573d6000803e3d6000fd5b505050506040513d6000823e3d601f19601f82011682018060405250602081101561042d57600080fd5b81019080805164010000000081111561044557600080fd5b8281019050602081018481111561045b57600080fd5b815185600182028301116401000000008211171561047857600080fd5b505092919050505090509190505600a165627a7a72305820b393bc2563c2d6adbf1c9bf56cb5918dc4faf10c2058bb1040f5cddb1a7589e80029",
  "source": "pragma solidity ^0.4.24;\n\nimport \"./GreeterLib.sol\";\n\ncontract GreeterImpl {\n  using GreeterLib for string;\n  event Greeting(string greeting);\n\n  function greet(string who) public {\n    emit Greeting(greeting(who));\n  }\n\n  function greeting(string who) public pure returns (string) {\n    return who.wrap();\n  }\n\n  function version() public pure returns (string) {\n    return \"1.1.0\";\n  }\n}\n",
  "sourcePath": "/home/spalladino/Projects/zeppelinos/zos/packages/cli/test/mocks/mock-stdlib/contracts/GreeterImpl.sol",
  "compiler": {
    "name": "solc",
    "version": "0.4.24+commit.e67f0147.Emscripten.clang"
  },
  "schemaVersion": "2.0.1",
  "updatedAt": "2018-10-12T10:51:50.530Z"
}