{
  "contractName": "GreeterImpl",
  "abi": [
    {
      "anonymous": false,
      "inputs": [
        {
          "indexed": false,
          "name": "greeting",
          "type": "string"
        }
      ],
      "name": "Greeting",
      "type": "event"
    },
    {
      "constant": false,
      "inputs": [
        {
          "name": "who",
          "type": "string"
        }
      ],
      "name": "greet",
      "outputs": [],
      "payable": false,
      "stateMutability": "nonpayable",
      "type": "function"
    },
    {
      "constant": true,
      "inputs": [
        {
          "name": "who",
          "type": "string"
        }
      ],
      "name": "greeting",
      "outputs": [
        {
          "name": "",
          "type": "string"
        }
      ],
      "payable": false,
      "stateMutability": "view",
      "type": "function"
    }
  ],
  "bytecode": "0x6060604052341561000f57600080fd5b61027b8061001e6000396000f30060606040526004361061004c576000357c0100000000000000000000000000000000000000000000000000000000900463ffffffff168063ead710c414610051578063f8194e48146100ae575b600080fd5b341561005c57600080fd5b6100ac600480803590602001908201803590602001908080601f01602080910402602001604051908101604052809392919081815260200183838082843782019150505050505091905050610184565b005b34156100b957600080fd5b610109600480803590602001908201803590602001908080601f0160208091040260200160405190810160405280939291908181526020018383808284378201915050505050509190505061022b565b6040518080602001828103825283818151815260200191508051906020019080838360005b8381101561014957808201518184015260208101905061012e565b50505050905090810190601f1680156101765780820380516001836020036101000a031916815260200191505b509250505060405180910390f35b7fa5263230ff6fc3abbbad333e24faf0f402b4e050b83a1d30ad4051f4e5d0f7276101ae8261022b565b6040518080602001828103825283818151815260200191508051906020019080838360005b838110156101ee5780820151818401526020810190506101d3565b50505050905090810190601f16801561021b5780820380516001836020036101000a031916815260200191505b509250505060405180910390a150565b61023361023b565b819050919050565b6020604051908101604052806000815250905600a165627a7a723058201d1f9ef1f5e3ee19e352309d1ea20f6b7aa056b7999c0945a0ae0e4268e041cb0029",
  "source": "pragma solidity ^0.4.21;\n\ncontract GreeterImpl {\n\n  event Greeting(string greeting);\n\n  function greet(string who) public {\n    emit Greeting(greeting(who));\n  }\n\n  function greeting(string who) public view returns(string) {\n    return who;\n  }\n  \n}",
  "sourcePath": "/home/spalladino/Projects/zeppelinos-cli/test/mocks/mock-stdlib/contracts/GreeterImpl.sol",
  "compiler": {
    "name": "solc",
    "version": "0.4.21+commit.dfe3193c.Emscripten.clang"
  },
  "schemaVersion": "2.0.0",
  "updatedAt": "2018-04-18T20:06:57.007Z"
}