{
  "contractName": "GreeterImpl",
  "abi": [
    {
      "constant": true,
      "inputs": [],
      "name": "value",
      "outputs": [
        {
          "name": "",
          "type": "uint256"
        }
      ],
      "payable": false,
      "stateMutability": "view",
      "type": "function"
    },
    {
      "constant": false,
      "inputs": [
        {
          "name": "_value",
          "type": "uint256"
        }
      ],
      "name": "initialize",
      "outputs": [],
      "payable": false,
      "stateMutability": "nonpayable",
      "type": "function"
    },
    {
      "anonymous": false,
      "inputs": [
        {
          "indexed": false,
          "name": "greeting",
          "type": "string"
        }
      ],
      "name": "Greeting",
      "type": "event"
    },
    {
      "constant": false,
      "inputs": [
        {
          "name": "_value",
          "type": "string"
        }
      ],
      "name": "clashingInitialize",
      "outputs": [],
      "payable": false,
      "stateMutability": "nonpayable",
      "type": "function"
    },
    {
      "constant": false,
      "inputs": [
        {
          "name": "_value",
          "type": "uint256"
        }
      ],
      "name": "clashingInitialize",
      "outputs": [],
      "payable": false,
      "stateMutability": "nonpayable",
      "type": "function"
    },
    {
      "constant": false,
      "inputs": [
        {
          "name": "who",
          "type": "string"
        }
      ],
      "name": "greet",
      "outputs": [],
      "payable": false,
      "stateMutability": "nonpayable",
      "type": "function"
    },
    {
      "constant": true,
      "inputs": [
        {
          "name": "who",
          "type": "string"
        }
      ],
      "name": "greeting",
      "outputs": [
        {
          "name": "",
          "type": "string"
        }
      ],
      "payable": false,
      "stateMutability": "pure",
      "type": "function"
    },
    {
      "constant": true,
      "inputs": [],
      "name": "version",
      "outputs": [
        {
          "name": "",
          "type": "string"
        }
      ],
      "payable": false,
      "stateMutability": "pure",
      "type": "function"
    }
  ],
  "bytecode": "0x608060405234801561001057600080fd5b50610490806100206000396000f300608060405260043610610083576000357c0100000000000000000000000000000000000000000000000000000000900463ffffffff1680633fa4f2451461008857806354fd4d50146100b3578063b799c02714610143578063caedf410146101ac578063ead710c4146101d9578063f8194e4814610242578063fe4b84df14610324575b600080fd5b34801561009457600080fd5b5061009d610351565b6040518082815260200191505060405180910390f35b3480156100bf57600080fd5b506100c8610357565b6040518080602001828103825283818151815260200191508051906020019080838360005b838110156101085780820151818401526020810190506100ed565b50505050905090810190601f1680156101355780820380516001836020036101000a031916815260200191505b509250505060405180910390f35b34801561014f57600080fd5b506101aa600480360381019080803590602001908201803590602001908080601f0160208091040260200160405190810160405280939291908181526020018383808284378201915050505050509192919290505050610394565b005b3480156101b857600080fd5b506101d76004803603810190808035906020019092919050505061039f565b005b3480156101e557600080fd5b50610240600480360381019080803590602001908201803590602001908080601f01602080910402602001604051908101604052809392919081815260200183838082843782019150505050505091929192905050506103a9565b005b34801561024e57600080fd5b506102a9600480360381019080803590602001908201803590602001908080601f0160208091040260200160405190810160405280939291908181526020018383808284378201915050505050509192919290505050610450565b6040518080602001828103825283818151815260200191508051906020019080838360005b838110156102e95780820151818401526020810190506102ce565b50505050905090810190601f1680156103165780820380516001836020036101000a031916815260200191505b509250505060405180910390f35b34801561033057600080fd5b5061034f6004803603810190808035906020019092919050505061045a565b005b60005481565b60606040805190810160405280600581526020017f312e312e30000000000000000000000000000000000000000000000000000000815250905090565b805160008190555050565b8060008190555050565b7fa5263230ff6fc3abbbad333e24faf0f402b4e050b83a1d30ad4051f4e5d0f7276103d382610450565b6040518080602001828103825283818151815260200191508051906020019080838360005b838110156104135780820151818401526020810190506103f8565b50505050905090810190601f1680156104405780820380516001836020036101000a031916815260200191505b509250505060405180910390a150565b6060819050919050565b80600081905550505600a165627a7a7230582045696049082f105553dc81795ef7380da00f89c73fa1f814e50eb5baea5175770029",
  "source": "pragma solidity ^0.4.24;\n\nimport \"./GreeterBase.sol\";\n\ncontract GreeterImpl is GreeterBase {\n  function clashingInitialize(string _value) public {\n    value = bytes(_value).length;\n  } \n\n  function greet(string who) public {\n    emit Greeting(greeting(who));\n  }\n\n  function greeting(string who) public pure returns (string) {\n    return who;\n  }\n\n  function version() public pure returns (string) {\n    return \"1.1.0\";\n  }\n}\n",
  "sourcePath": "/path/mock-stdlib-undeployed/contracts/GreeterImpl.sol",
  "compiler": {
    "name": "solc",
    "version": "0.4.24+commit.e67f0147.Emscripten.clang"
  },
  "schemaVersion": "2.0.1",
  "updatedAt": "2018-10-11T10:59:50.934Z"
}