{
  "fileName": "InternalLibrary.sol",
  "contractName": "Numbers",
  "source": "pragma solidity ^0.5.0;\n\nlibrary Numbers {\n  function double(uint256 self) public pure returns (uint256) {\n    return self * 2;\n  }\n}",
  "sourcePath": "contracts/InternalLibrary.sol",
  "abi": [
    {
      "constant": true,
      "inputs": [
        {
          "internalType": "uint256",
          "name": "self",
          "type": "uint256"
        }
      ],
      "name": "double",
      "outputs": [
        {
          "internalType": "uint256",
          "name": "",
          "type": "uint256"
        }
      ],
      "payable": false,
      "stateMutability": "pure",
      "type": "function"
    }
  ],
  "bytecode": "0x60b9610025600b82828239805160001a60731461001857fe5b30600052607381538281f3fe730000000000000000000000000000000000000000301460806040526004361060335760003560e01c8063eee97206146038575b600080fd5b606160048036036020811015604c57600080fd5b81019080803590602001909291905050506077565b6040518082815260200191505060405180910390f35b600060028202905091905056fea265627a7a7231582071aa23424d50fcb1b1797af31e0817f73ad0ee14ed6eb7ea74a280fdaef1203364736f6c63430005100032",
  "compiler": {
    "name": "solc",
    "version": "0.5.16+commit.9c3226ce.Emscripten.clang",
    "optimizer": {
      "enabled": false,
      "runs": 200
    },
    "evmVersion": "petersburg"
  }
}