{
  "fileName": "Sample.sol",
  "contractName": "Sample",
  "source": "pragma solidity ^0.6.0;\n\ncontract Base {\n  function basePure() public pure { }\n  function basePayable() public payable { }\n}\n\ncontract Sample is Base {\n  uint256 public value;\n\n  function samplePure(uint256 x) public pure returns (uint256) { return x; }\n  function sampleView() public view returns (uint256) { return value; }\n  function samplePayable() public payable { value = value + 1; }\n  function sampleNonpayable(uint256 x) public { value = value + x; }\n}\n",
  "sourcePath": "contracts/Sample.sol",
  "abi": [
    {
      "inputs": [],
      "name": "basePayable",
      "outputs": [],
      "stateMutability": "payable",
      "type": "function"
    },
    {
      "inputs": [],
      "name": "basePure",
      "outputs": [],
      "stateMutability": "pure",
      "type": "function"
    },
    {
      "inputs": [
        {
          "internalType": "uint256",
          "name": "x",
          "type": "uint256"
        }
      ],
      "name": "sampleNonpayable",
      "outputs": [],
      "stateMutability": "nonpayable",
      "type": "function"
    },
    {
      "inputs": [],
      "name": "samplePayable",
      "outputs": [],
      "stateMutability": "payable",
      "type": "function"
    },
    {
      "inputs": [
        {
          "internalType": "uint256",
          "name": "x",
          "type": "uint256"
        }
      ],
      "name": "samplePure",
      "outputs": [
        {
          "internalType": "uint256",
          "name": "",
          "type": "uint256"
        }
      ],
      "stateMutability": "pure",
      "type": "function"
    },
    {
      "inputs": [],
      "name": "sampleView",
      "outputs": [
        {
          "internalType": "uint256",
          "name": "",
          "type": "uint256"
        }
      ],
      "stateMutability": "view",
      "type": "function"
    },
    {
      "inputs": [],
      "name": "value",
      "outputs": [
        {
          "internalType": "uint256",
          "name": "",
          "type": "uint256"
        }
      ],
      "stateMutability": "view",
      "type": "function"
    }
  ],
  "bytecode": "0x608060405234801561001057600080fd5b506101ef806100206000396000f3fe6080604052600436106100705760003560e01c80635a38719b1161004e5780635a38719b146100c1578063b7a5737514610110578063f77a680e1461013b578063f77df40a1461017657610070565b806310c82ddf146100755780633fa4f2451461008c5780634e45352b146100b7575b600080fd5b34801561008157600080fd5b5061008a610180565b005b34801561009857600080fd5b506100a1610182565b6040518082815260200191505060405180910390f35b6100bf610188565b005b3480156100cd57600080fd5b506100fa600480360360208110156100e457600080fd5b8101908080359060200190929190505050610196565b6040518082815260200191505060405180910390f35b34801561011c57600080fd5b506101256101a0565b6040518082815260200191505060405180910390f35b34801561014757600080fd5b506101746004803603602081101561015e57600080fd5b81019080803590602001909291905050506101a9565b005b61017e6101b7565b005b565b60005481565b600160005401600081905550565b6000819050919050565b60008054905090565b806000540160008190555050565b56fea2646970667358221220dc0b935ba7d7535722913b30f075b2b7a2f169e4f0d3d20033c4ea404d81d63764736f6c63430006000033",
  "compiler": {
    "name": "solc",
    "version": "0.6.0+commit.26b70077.Emscripten.clang",
    "optimizer": {
      "enabled": false,
      "runs": 200
    },
    "evmVersion": "petersburg"
  }
}