{
  "fileName": "MyContractV1.sol",
  "contractName": "MyContractV1",
  "source": "pragma solidity ^0.5.0;\n\nimport \"./MyContractV0.sol\";\n\ncontract MyContractV1 is MyContractV0 {\n  function add(uint256 _value) public {\n    value = value + _value;\n  }\n}\n\n",
  "sourcePath": "contracts/MyContractV1.sol",
  "abi": [
    {
      "constant": false,
      "inputs": [
        {
          "internalType": "uint256",
          "name": "_value",
          "type": "uint256"
        }
      ],
      "name": "add",
      "outputs": [],
      "payable": false,
      "stateMutability": "nonpayable",
      "type": "function"
    },
    {
      "constant": false,
      "inputs": [
        {
          "internalType": "uint256",
          "name": "_value",
          "type": "uint256"
        }
      ],
      "name": "initialize",
      "outputs": [],
      "payable": false,
      "stateMutability": "nonpayable",
      "type": "function"
    },
    {
      "constant": true,
      "inputs": [],
      "name": "value",
      "outputs": [
        {
          "internalType": "uint256",
          "name": "",
          "type": "uint256"
        }
      ],
      "payable": false,
      "stateMutability": "view",
      "type": "function"
    }
  ],
  "bytecode": "0x608060405234801561001057600080fd5b5061024f806100206000396000f3fe608060405234801561001057600080fd5b50600436106100415760003560e01c80631003e2d2146100465780633fa4f24514610074578063fe4b84df14610092575b600080fd5b6100726004803603602081101561005c57600080fd5b81019080803590602001909291905050506100c0565b005b61007c6100ce565b6040518082815260200191505060405180910390f35b6100be600480360360208110156100a857600080fd5b81019080803590602001909291905050506100d4565b005b806033540160338190555050565b60335481565b600060019054906101000a900460ff16806100f357506100f26101db565b5b8061010a57506000809054906101000a900460ff16155b61015f576040517f08c379a000000000000000000000000000000000000000000000000000000000815260040180806020018281038252602e8152602001806101ed602e913960400191505060405180910390fd5b60008060019054906101000a900460ff1615905080156101af576001600060016101000a81548160ff02191690831515021790555060016000806101000a81548160ff0219169083151502179055505b8160338190555080156101d75760008060016101000a81548160ff0219169083151502179055505b5050565b600080303b9050600081149150509056fe436f6e747261637420696e7374616e63652068617320616c7265616479206265656e20696e697469616c697a6564a265627a7a72315820a241c83ca6970da580c319b8589406d671bdcffa9dc794a66fb6ce9fe3daeb4264736f6c634300050f0032",
  "compiler": {
    "name": "solc",
    "version": "0.5.15+commit.6a57276f.Emscripten.clang",
    "optimizer": {
      "enabled": false,
      "runs": 200
    },
    "evmVersion": "petersburg"
  }
}