{
  "fileName": "MyContractV0.sol",
  "contractName": "MyContractV0",
  "source": "pragma solidity ^0.5.0;\n\nimport \"@openzeppelin/upgrades/contracts/Initializable.sol\";\n\ncontract MyContractV0 is Initializable {\n  uint256 public value;\n  \n  function initialize(uint256 _value) initializer public {\n    value = _value;\n  }\n}\n\n",
  "sourcePath": "contracts/MyContractV0.sol",
  "abi": [
    {
      "constant": false,
      "inputs": [
        {
          "internalType": "uint256",
          "name": "_value",
          "type": "uint256"
        }
      ],
      "name": "initialize",
      "outputs": [],
      "payable": false,
      "stateMutability": "nonpayable",
      "type": "function"
    },
    {
      "constant": true,
      "inputs": [],
      "name": "value",
      "outputs": [
        {
          "internalType": "uint256",
          "name": "",
          "type": "uint256"
        }
      ],
      "payable": false,
      "stateMutability": "view",
      "type": "function"
    }
  ],
  "bytecode": "0x608060405234801561001057600080fd5b50610208806100206000396000f3fe608060405234801561001057600080fd5b50600436106100365760003560e01c80633fa4f2451461003b578063fe4b84df14610059575b600080fd5b610043610087565b6040518082815260200191505060405180910390f35b6100856004803603602081101561006f57600080fd5b810190808035906020019092919050505061008d565b005b60335481565b600060019054906101000a900460ff16806100ac57506100ab610194565b5b806100c357506000809054906101000a900460ff16155b610118576040517f08c379a000000000000000000000000000000000000000000000000000000000815260040180806020018281038252602e8152602001806101a6602e913960400191505060405180910390fd5b60008060019054906101000a900460ff161590508015610168576001600060016101000a81548160ff02191690831515021790555060016000806101000a81548160ff0219169083151502179055505b8160338190555080156101905760008060016101000a81548160ff0219169083151502179055505b5050565b600080303b9050600081149150509056fe436f6e747261637420696e7374616e63652068617320616c7265616479206265656e20696e697469616c697a6564a265627a7a7231582019c09492534cc015d86da305adaea9876d95eb3fdb486c4b75a9dd3e3d2c731364736f6c634300050f0032",
  "compiler": {
    "name": "solc",
    "version": "0.5.15+commit.6a57276f.Emscripten.clang",
    "optimizer": {
      "enabled": false,
      "runs": 200
    },
    "evmVersion": "petersburg"
  }
}