{
  "contractName": "Greeter",
  "abi": [
    {
      "constant": true,
      "inputs": [],
      "name": "who",
      "outputs": [
        {
          "name": "",
          "type": "string"
        }
      ],
      "payable": false,
      "stateMutability": "view",
      "type": "function"
    },
    {
      "constant": false,
      "inputs": [
        {
          "name": "_who",
          "type": "string"
        }
      ],
      "name": "initialize",
      "outputs": [],
      "payable": false,
      "stateMutability": "nonpayable",
      "type": "function"
    },
    {
      "constant": true,
      "inputs": [],
      "name": "minor",
      "outputs": [
        {
          "name": "",
          "type": "uint256"
        }
      ],
      "payable": false,
      "stateMutability": "pure",
      "type": "function"
    }
  ],
  "bytecode": "0x608060405234801561001057600080fd5b50610347806100206000396000f300608060405260043610610057576000357c0100000000000000000000000000000000000000000000000000000000900463ffffffff168063bb834b0e1461005c578063d6d21dfd14610087578063f62d188814610117575b600080fd5b34801561006857600080fd5b50610071610180565b6040518082815260200191505060405180910390f35b34801561009357600080fd5b5061009c610189565b6040518080602001828103825283818151815260200191508051906020019080838360005b838110156100dc5780820151818401526020810190506100c1565b50505050905090810190601f1680156101095780820380516001836020036101000a031916815260200191505b509250505060405180910390f35b34801561012357600080fd5b5061017e600480360381019080803590602001908201803590602001908080601f0160208091040260200160405190810160405280939291908181526020018383808284378201915050505050509192919290505050610227565b005b60006002905090565b60018054600181600116156101000203166002900480601f01602080910402602001604051908101604052809291908181526020018280546001816001161561010002031660029004801561021f5780601f106101f45761010080835404028352916020019161021f565b820191906000526020600020905b81548152906001019060200180831161020257829003601f168201915b505050505081565b6000809054906101000a900460ff1615151561024257600080fd5b8060019080519060200190610258929190610276565b5060016000806101000a81548160ff02191690831515021790555050565b828054600181600116156101000203166002900490600052602060002090601f016020900481019282601f106102b757805160ff19168380011785556102e5565b828001600101855582156102e5579182015b828111156102e45782518255916020019190600101906102c9565b5b5090506102f291906102f6565b5090565b61031891905b808211156103145760008160009055506001016102fc565b5090565b905600a165627a7a7230582062830b42317eb1be4fc0e364e0096cea154c49f497d4933d05574682a605c5880029",
  "source": "pragma solidity ^0.4.24;\n\ncontract Greeter {\n  bool private isInitialized;\n  string public who;\n\n  function initialize(string _who) public {\n    require (!isInitialized);\n    who = _who;\n    isInitialized = true;\n  }\n\n  function minor() public pure returns (uint256) {\n    return 2;\n  }\n}\n",
  "sourcePath": "/home/spalladino/Projects/zeppelinos/zos/tests/cli-app/dependencies/mock-stdlib-1.2.0/contracts/Greeter.sol",
  "compiler": {
    "name": "solc",
    "version": "0.4.24+commit.e67f0147.Emscripten.clang"
  },
  "schemaVersion": "2.0.1",
  "updatedAt": "2018-10-04T15:03:05.279Z"
}