{
  "contractName": "Greeter",
  "abi": [
    {
      "constant": true,
      "inputs": [],
      "name": "who",
      "outputs": [
        {
          "name": "",
          "type": "string"
        }
      ],
      "payable": false,
      "stateMutability": "view",
      "type": "function"
    },
    {
      "constant": false,
      "inputs": [
        {
          "name": "_who",
          "type": "string"
        }
      ],
      "name": "initialize",
      "outputs": [],
      "payable": false,
      "stateMutability": "nonpayable",
      "type": "function"
    },
    {
      "constant": true,
      "inputs": [],
      "name": "minor",
      "outputs": [
        {
          "name": "",
          "type": "uint256"
        }
      ],
      "payable": false,
      "stateMutability": "pure",
      "type": "function"
    },
    {
      "constant": true,
      "inputs": [
        {
          "name": "x",
          "type": "uint256"
        }
      ],
      "name": "doubles",
      "outputs": [
        {
          "name": "",
          "type": "uint256"
        }
      ],
      "payable": false,
      "stateMutability": "pure",
      "type": "function"
    }
  ],
  "bytecode": "0x608060405234801561001057600080fd5b50610444806100206000396000f300608060405260043610610062576000357c0100000000000000000000000000000000000000000000000000000000900463ffffffff168063448b1aac14610067578063bb834b0e146100a8578063d6d21dfd146100d3578063f62d188814610163575b600080fd5b34801561007357600080fd5b50610092600480360381019080803590602001909291905050506101cc565b6040518082815260200191505060405180910390f35b3480156100b457600080fd5b506100bd61027d565b6040518082815260200191505060405180910390f35b3480156100df57600080fd5b506100e8610286565b6040518080602001828103825283818151815260200191508051906020019080838360005b8381101561012857808201518184015260208101905061010d565b50505050905090810190601f1680156101555780820380516001836020036101000a031916815260200191505b509250505060405180910390f35b34801561016f57600080fd5b506101ca600480360381019080803590602001908201803590602001908080601f0160208091040260200160405190810160405280939291908181526020018383808284378201915050505050509192919290505050610324565b005b60008173__Numbers_______________________________63eee9720690916040518263ffffffff167c01000000000000000000000000000000000000000000000000000000000281526004018082815260200191505060206040518083038186803b15801561023b57600080fd5b505af415801561024f573d6000803e3d6000fd5b505050506040513d602081101561026557600080fd5b81019080805190602001909291905050509050919050565b60006002905090565b60018054600181600116156101000203166002900480601f01602080910402602001604051908101604052809291908181526020018280546001816001161561010002031660029004801561031c5780601f106102f15761010080835404028352916020019161031c565b820191906000526020600020905b8154815290600101906020018083116102ff57829003601f168201915b505050505081565b6000809054906101000a900460ff1615151561033f57600080fd5b8060019080519060200190610355929190610373565b5060016000806101000a81548160ff02191690831515021790555050565b828054600181600116156101000203166002900490600052602060002090601f016020900481019282601f106103b457805160ff19168380011785556103e2565b828001600101855582156103e2579182015b828111156103e15782518255916020019190600101906103c6565b5b5090506103ef91906103f3565b5090565b61041591905b808211156104115760008160009055506001016103f9565b5090565b905600a165627a7a723058201bb9a2f6d255e10f8f2874e45487ff69785b10722261a9c0390a7b1b4059c5760029",
  "source": "pragma solidity ^0.4.24;\n\nimport \"./InternalLibrary.sol\";\n\ncontract Greeter {\n  using Numbers for uint256;\n\n  bool private isInitialized;\n  string public who;\n\n  function initialize(string _who) public {\n    require (!isInitialized);\n    who = _who;\n    isInitialized = true;\n  }\n\n  function minor() public pure returns (uint256) {\n    return 2;\n  }\n\n  function doubles(uint256 x) public pure returns (uint256) {\n    return x.double();\n  }\n}\n",
  "sourcePath": "/home/spalladino/Projects/zeppelinos/zos/tests/cli-app/dependencies/mock-stdlib-1.2.0/contracts/Greeter.sol",
  "compiler": {
    "name": "solc",
    "version": "0.4.24+commit.e67f0147.Emscripten.clang"
  },
  "schemaVersion": "2.0.1",
  "updatedAt": "2018-10-12T10:21:38.888Z"
}