{
  "fileName": "Greeter.sol",
  "contractName": "Greeter",
  "source": "pragma solidity ^0.5.0;\n\nimport \"./InternalLibrary.sol\";\n\ncontract Greeter {\n  using Numbers for uint256;\n\n  string public who;\n\n  constructor(string memory _who) public {\n    who = _who;\n  }\n\n  function minor() public pure returns (uint256) {\n    return 2;\n  }\n\n  function doubles(uint256 x) public pure returns (uint256) {\n    return x.double();\n  }\n}\n",
  "sourcePath": "contracts/Greeter.sol",
  "abi": [
    {
      "inputs": [
        {
          "internalType": "string",
          "name": "_who",
          "type": "string"
        }
      ],
      "payable": false,
      "stateMutability": "nonpayable",
      "type": "constructor"
    },
    {
      "constant": true,
      "inputs": [
        {
          "internalType": "uint256",
          "name": "x",
          "type": "uint256"
        }
      ],
      "name": "doubles",
      "outputs": [
        {
          "internalType": "uint256",
          "name": "",
          "type": "uint256"
        }
      ],
      "payable": false,
      "stateMutability": "pure",
      "type": "function"
    },
    {
      "constant": true,
      "inputs": [],
      "name": "minor",
      "outputs": [
        {
          "internalType": "uint256",
          "name": "",
          "type": "uint256"
        }
      ],
      "payable": false,
      "stateMutability": "pure",
      "type": "function"
    },
    {
      "constant": true,
      "inputs": [],
      "name": "who",
      "outputs": [
        {
          "internalType": "string",
          "name": "",
          "type": "string"
        }
      ],
      "payable": false,
      "stateMutability": "view",
      "type": "function"
    }
  ],
  "bytecode": "0x608060405234801561001057600080fd5b506040516104593803806104598339818101604052602081101561003357600080fd5b810190808051604051939291908464010000000082111561005357600080fd5b8382019150602082018581111561006957600080fd5b825186600182028301116401000000008211171561008657600080fd5b8083526020830192505050908051906020019080838360005b838110156100ba57808201518184015260208101905061009f565b50505050905090810190601f1680156100e75780820380516001836020036101000a031916815260200191505b50604052505050806000908051906020019061010492919061010b565b50506101b0565b828054600181600116156101000203166002900490600052602060002090601f016020900481019282601f1061014c57805160ff191683800117855561017a565b8280016001018555821561017a579182015b8281111561017957825182559160200191906001019061015e565b5b509050610187919061018b565b5090565b6101ad91905b808211156101a9576000816000905550600101610191565b5090565b90565b61029a806101bf6000396000f3fe608060405234801561001057600080fd5b50600436106100415760003560e01c8063448b1aac14610046578063bb834b0e14610088578063d6d21dfd146100a6575b600080fd5b6100726004803603602081101561005c57600080fd5b8101908080359060200190929190505050610129565b6040518082815260200191505060405180910390f35b6100906101be565b6040518082815260200191505060405180910390f35b6100ae6101c7565b6040518080602001828103825283818151815260200191508051906020019080838360005b838110156100ee5780820151818401526020810190506100d3565b50505050905090810190601f16801561011b5780820380516001836020036101000a031916815260200191505b509250505060405180910390f35b60008173__Numbers_______________________________63eee9720690916040518263ffffffff1660e01b81526004018082815260200191505060206040518083038186803b15801561017c57600080fd5b505af4158015610190573d6000803e3d6000fd5b505050506040513d60208110156101a657600080fd5b81019080805190602001909291905050509050919050565b60006002905090565b60008054600181600116156101000203166002900480601f01602080910402602001604051908101604052809291908181526020018280546001816001161561010002031660029004801561025d5780601f106102325761010080835404028352916020019161025d565b820191906000526020600020905b81548152906001019060200180831161024057829003601f168201915b50505050508156fea265627a7a723158207c896bc3ef38e299c320c682e453f8d8a3e1102469525021bcf16418cd79052164736f6c63430005100032",
  "compiler": {
    "name": "solc",
    "version": "0.5.16+commit.9c3226ce.Emscripten.clang",
    "optimizer": {
      "enabled": false,
      "runs": 200
    },
    "evmVersion": "petersburg"
  }
}