{
  "contractName": "Numbers",
  "abi": [
    {
      "constant": true,
      "inputs": [
        {
          "name": "self",
          "type": "uint256"
        }
      ],
      "name": "double",
      "outputs": [
        {
          "name": "",
          "type": "uint256"
        }
      ],
      "payable": false,
      "stateMutability": "pure",
      "type": "function"
    }
  ],
  "bytecode": "0x60c961002f600b82828239805160001a6073146000811461001f57610021565bfe5b5030600052607381538281f30073000000000000000000000000000000000000000030146080604052600436106056576000357c0100000000000000000000000000000000000000000000000000000000900463ffffffff168063eee9720614605b575b600080fd5b607760048036038101908080359060200190929190505050608d565b6040518082815260200191505060405180910390f35b60006001600283020190509190505600a165627a7a723058201ba0e96b94ca2a89a3df40c4b2e024f2024f78f03eb989e943758436c571ff340029",
  "source": "pragma solidity ^0.4.24;\n\nlibrary Numbers {\n  function double(uint256 self) public pure returns (uint256) {\n    return self * 2 + 1;\n  }\n}",
  "sourcePath": "/home/spalladino/Projects/zeppelinos/zos/tests/cli-app/dependencies/mock-stdlib-1.2.0/contracts/InternalLibrary.sol",
  "compiler": {
    "name": "solc",
    "version": "0.4.24+commit.e67f0147.Emscripten.clang"
  },
  "schemaVersion": "2.0.1",
  "updatedAt": "2018-10-12T10:21:38.885Z"
}