{
  "contractName": "Parent",
  "abi": [
    {
      "constant": true,
      "inputs": [],
      "name": "extendsParent",
      "outputs": [
        {
          "name": "",
          "type": "bool"
        }
      ],
      "payable": false,
      "stateMutability": "pure",
      "type": "function"
    }
  ],
  "bytecode": "0x6080604052348015600f57600080fd5b5060a58061001e6000396000f300608060405260043610603f576000357c0100000000000000000000000000000000000000000000000000000000900463ffffffff1680631ffdaabd146044575b600080fd5b348015604f57600080fd5b5060566070565b604051808215151515815260200191505060405180910390f35b600060019050905600a165627a7a7230582085b91732692669c5a0279dd53b9512e9506c88509b4fdd01e663d9ce2a2b312e0029",
  "source": "pragma solidity ^0.4.24;\n\ncontract Parent {\n  function extendsParent() public pure returns (bool) {\n    return true;\n  }\n}\n",
  "sourcePath": "/home/spalladino/Projects/zeppelinos/zos/tests/cli-app/dependencies/mock-stdlib-1.2.0/contracts/Parent.sol",
  "compiler": {
    "name": "solc",
    "version": "0.4.24+commit.e67f0147.Emscripten.clang"
  },
  "schemaVersion": "2.0.1",
  "updatedAt": "2018-10-12T10:21:38.887Z"
}