{
  "fileName": "Parent.sol",
  "contractName": "Parent",
  "source": "pragma solidity ^0.5.0;\n\ncontract Parent {\n  function extendsParent() public pure returns (bool) {\n    return true;\n  }\n}\n",
  "sourcePath": "contracts/Parent.sol",
  "abi": [
    {
      "constant": true,
      "inputs": [],
      "name": "extendsParent",
      "outputs": [
        {
          "internalType": "bool",
          "name": "",
          "type": "bool"
        }
      ],
      "payable": false,
      "stateMutability": "pure",
      "type": "function"
    }
  ],
  "bytecode": "0x6080604052348015600f57600080fd5b50608b8061001e6000396000f3fe6080604052348015600f57600080fd5b506004361060285760003560e01c80631ffdaabd14602d575b600080fd5b6033604d565b604051808215151515815260200191505060405180910390f35b6000600190509056fea265627a7a723158205937af869dd7121c4a81c19499ae6e48377a979592b55e9d0be5416d613b5a2464736f6c63430005100032",
  "compiler": {
    "name": "solc",
    "version": "0.5.16+commit.9c3226ce.Emscripten.clang",
    "optimizer": {
      "enabled": false,
      "runs": 200
    },
    "evmVersion": "petersburg"
  }
}