{
  "fileName": "ContextUpgradable.sol",
  "contractName": "ContextUpgradable",
  "source": "pragma solidity ^0.5.0;\nimport \"@openzeppelin/upgrades/contracts/Initializable.sol\";\n\n/*\n * @dev Provides information about the current execution context, including the\n * sender of the transaction and its data. While these are generally available\n * via msg.sender and msg.data, they should not be accessed in such a direct\n * manner, since when dealing with GSN meta-transactions the account sending and\n * paying for execution may not be the actual sender (as far as an application\n * is concerned).\n *\n * This contract is only required for intermediate, library-like contracts.\n */\ncontract ContextUpgradable is Initializable {\n    function initialize() external initializer {\n        __init(true);\n    }\n\n    function __init(bool callChain) internal {\n        \n        \n         \n    }\n\n    // Empty internal constructor, to prevent people from mistakenly deploying\n    // an instance of this contract, which should be used via inheritance.\n    \n    // solhint-disable-previous-line no-empty-blocks\n\n    function _msgSender() internal view returns (address payable) {\n        return msg.sender;\n    }\n\n    function _msgData() internal view returns (bytes memory) {\n        this; // silence state mutability warning without generating bytecode - see https://github.com/ethereum/solidity/issues/2691\n        return msg.data;\n    }\n}\n",
  "sourcePath": "contracts/__upgradable__/@openzeppelin/contracts/GSN/ContextUpgradable.sol",
  "abi": [
    {
      "constant": false,
      "inputs": [],
      "name": "initialize",
      "outputs": [],
      "payable": false,
      "stateMutability": "nonpayable",
      "type": "function"
    }
  ],
  "bytecode": "0x608060405234801561001057600080fd5b506101ba806100206000396000f3fe608060405234801561001057600080fd5b506004361061002b5760003560e01c80638129fc1c14610030575b600080fd5b61003861003a565b005b600060019054906101000a900460ff16806100595750610058610143565b5b8061007057506000809054906101000a900460ff16155b6100c5576040517f08c379a000000000000000000000000000000000000000000000000000000000815260040180806020018281038252602e815260200180610158602e913960400191505060405180910390fd5b60008060019054906101000a900460ff161590508015610115576001600060016101000a81548160ff02191690831515021790555060016000806101000a81548160ff0219169083151502179055505b61011f6001610154565b80156101405760008060016101000a81548160ff0219169083151502179055505b50565b600080303b90506000811491505090565b5056fe436f6e747261637420696e7374616e63652068617320616c7265616479206265656e20696e697469616c697a6564a265627a7a72315820177ae6422fe07d65ccad31e5d9f28361f6a70011df94527e2d58bcd53888620164736f6c63430005100032",
  "compiler": {
    "name": "solc",
    "version": "0.5.16+commit.9c3226ce.Emscripten.clang",
    "optimizer": {
      "enabled": false,
      "runs": 200
    },
    "evmVersion": "petersburg"
  }
}