{
  "contractName": "Instance",
  "abi": [
    {
      "constant": true,
      "inputs": [],
      "name": "value",
      "outputs": [
        {
          "name": "",
          "type": "uint256"
        }
      ],
      "payable": false,
      "stateMutability": "view",
      "type": "function"
    },
    {
      "constant": false,
      "inputs": [
        {
          "name": "_value",
          "type": "uint256"
        }
      ],
      "name": "initialize",
      "outputs": [],
      "payable": false,
      "stateMutability": "nonpayable",
      "type": "function"
    }
  ],
  "bytecode": "0x608060405234801561001057600080fd5b50610229806100206000396000f30060806040526004361061004c576000357c0100000000000000000000000000000000000000000000000000000000900463ffffffff1680633fa4f24514610051578063fe4b84df1461007c575b600080fd5b34801561005d57600080fd5b506100666100a9565b6040518082815260200191505060405180910390f35b34801561008857600080fd5b506100a7600480360381019080803590602001909291905050506100af565b005b60335481565b60008060019054906101000a900460ff16806100cf57506100ce6101ec565b5b806100e657506000809054906101000a900460ff16155b1515610180576040517f08c379a000000000000000000000000000000000000000000000000000000000815260040180806020018281038252602e8152602001807f436f6e747261637420696e7374616e63652068617320616c726561647920626581526020017f656e20696e697469616c697a656400000000000000000000000000000000000081525060400191505060405180910390fd5b600060019054906101000a900460ff1690506001600060016101000a81548160ff02191690831515021790555060016000806101000a81548160ff0219169083151502179055508160338190555080600060016101000a81548160ff0219169083151502179055505050565b600080303b905060008114915050905600a165627a7a7230582082e303b9e0e3962d25087d2a7c1dcadea8eea50e8c0a79312cffee9bc0cd0c6d0029",
  "source": "pragma solidity ^0.4.24;\n\nimport \"zos-lib/contracts/Initializable.sol\";\n\ncontract Instance is Initializable {\n  \n  uint256 public value;\n\n  function initialize(uint256 _value) public initializer {\n    value = _value;\n  }\n}\n",
  "sourcePath": "/home/ajs/zos-branches/example/create-instance-from-contract/zos/examples/dynamic-instance/contracts/Instance.sol",
  "compiler": {
    "name": "solc",
    "version": "0.4.25+commit.59dbf8f1.Emscripten.clang"
  },
  "schemaVersion": "2.0.2",
  "updatedAt": "2019-02-20T18:21:14.412Z"
}