{
  "contractName": "Package",
  "abi": [
    {
      "constant": false,
      "inputs": [],
      "name": "renounceOwnership",
      "outputs": [],
      "payable": false,
      "stateMutability": "nonpayable",
      "type": "function"
    },
    {
      "constant": true,
      "inputs": [],
      "name": "owner",
      "outputs": [
        {
          "name": "",
          "type": "address"
        }
      ],
      "payable": false,
      "stateMutability": "view",
      "type": "function"
    },
    {
      "constant": false,
      "inputs": [
        {
          "name": "_newOwner",
          "type": "address"
        }
      ],
      "name": "transferOwnership",
      "outputs": [],
      "payable": false,
      "stateMutability": "nonpayable",
      "type": "function"
    },
    {
      "anonymous": false,
      "inputs": [
        {
          "indexed": false,
          "name": "semanticVersion",
          "type": "uint64[3]"
        },
        {
          "indexed": false,
          "name": "contractAddress",
          "type": "address"
        },
        {
          "indexed": false,
          "name": "contentURI",
          "type": "bytes"
        }
      ],
      "name": "VersionAdded",
      "type": "event"
    },
    {
      "anonymous": false,
      "inputs": [
        {
          "indexed": true,
          "name": "previousOwner",
          "type": "address"
        }
      ],
      "name": "OwnershipRenounced",
      "type": "event"
    },
    {
      "anonymous": false,
      "inputs": [
        {
          "indexed": true,
          "name": "previousOwner",
          "type": "address"
        },
        {
          "indexed": true,
          "name": "newOwner",
          "type": "address"
        }
      ],
      "name": "OwnershipTransferred",
      "type": "event"
    },
    {
      "constant": true,
      "inputs": [
        {
          "name": "semanticVersion",
          "type": "uint64[3]"
        }
      ],
      "name": "getVersion",
      "outputs": [
        {
          "name": "contractAddress",
          "type": "address"
        },
        {
          "name": "contentURI",
          "type": "bytes"
        }
      ],
      "payable": false,
      "stateMutability": "view",
      "type": "function"
    },
    {
      "constant": true,
      "inputs": [
        {
          "name": "semanticVersion",
          "type": "uint64[3]"
        }
      ],
      "name": "getContract",
      "outputs": [
        {
          "name": "contractAddress",
          "type": "address"
        }
      ],
      "payable": false,
      "stateMutability": "view",
      "type": "function"
    },
    {
      "constant": false,
      "inputs": [
        {
          "name": "semanticVersion",
          "type": "uint64[3]"
        },
        {
          "name": "contractAddress",
          "type": "address"
        },
        {
          "name": "contentURI",
          "type": "bytes"
        }
      ],
      "name": "addVersion",
      "outputs": [],
      "payable": false,
      "stateMutability": "nonpayable",
      "type": "function"
    },
    {
      "constant": true,
      "inputs": [
        {
          "name": "semanticVersion",
          "type": "uint64[3]"
        }
      ],
      "name": "hasVersion",
      "outputs": [
        {
          "name": "",
          "type": "bool"
        }
      ],
      "payable": false,
      "stateMutability": "view",
      "type": "function"
    },
    {
      "constant": true,
      "inputs": [],
      "name": "getLatest",
      "outputs": [
        {
          "name": "semanticVersion",
          "type": "uint64[3]"
        },
        {
          "name": "contractAddress",
          "type": "address"
        },
        {
          "name": "contentURI",
          "type": "bytes"
        }
      ],
      "payable": false,
      "stateMutability": "view",
      "type": "function"
    },
    {
      "constant": true,
      "inputs": [
        {
          "name": "major",
          "type": "uint64"
        }
      ],
      "name": "getLatestByMajor",
      "outputs": [
        {
          "name": "semanticVersion",
          "type": "uint64[3]"
        },
        {
          "name": "contractAddress",
          "type": "address"
        },
        {
          "name": "contentURI",
          "type": "bytes"
        }
      ],
      "payable": false,
      "stateMutability": "view",
      "type": "function"
    }
  ],
  "bytecode": "0x6080604052336000806101000a81548173ffffffffffffffffffffffffffffffffffffffff021916908373ffffffffffffffffffffffffffffffffffffffff16021790555061167f806100536000396000f300608060405260043610610099576000357c0100000000000000000000000000000000000000000000000000000000900463ffffffff1680631df40eaa1461009e57806335ce401614610130578063715018a61461019a5780638da5cb5b146101b1578063c356d5b014610208578063c36af4601461031a578063d6ef25d51461040c578063e30329e9146104c4578063f2fde38b146105c2575b600080fd5b3480156100aa57600080fd5b506100ee6004803603810190808060600190600380602002604051908101604052809291908260036020028082843782019150505050509192919290505050610605565b604051808273ffffffffffffffffffffffffffffffffffffffff1673ffffffffffffffffffffffffffffffffffffffff16815260200191505060405180910390f35b34801561013c57600080fd5b50610180600480360381019080806060019060038060200260405190810160405280929190826003602002808284378201915050505050919291929050505061065a565b604051808215151515815260200191505060405180910390f35b3480156101a657600080fd5b506101af6106df565b005b3480156101bd57600080fd5b506101c66107e1565b604051808273ffffffffffffffffffffffffffffffffffffffff1673ffffffffffffffffffffffffffffffffffffffff16815260200191505060405180910390f35b34801561021457600080fd5b5061023d600480360381019080803567ffffffffffffffff169060200190929190505050610806565b6040518084600360200280838360005b8381101561026857808201518184015260208101905061024d565b505050509050018373ffffffffffffffffffffffffffffffffffffffff1673ffffffffffffffffffffffffffffffffffffffff16815260200180602001828103825283818151815260200191508051906020019080838360005b838110156102dd5780820151818401526020810190506102c2565b50505050905090810190601f16801561030a5780820380516001836020036101000a031916815260200191505b5094505050505060405180910390f35b34801561032657600080fd5b5061032f6109a2565b6040518084600360200280838360005b8381101561035a57808201518184015260208101905061033f565b505050509050018373ffffffffffffffffffffffffffffffffffffffff1673ffffffffffffffffffffffffffffffffffffffff16815260200180602001828103825283818151815260200191508051906020019080838360005b838110156103cf5780820151818401526020810190506103b4565b50505050905090810190601f1680156103fc5780820380516001836020036101000a031916815260200191505b5094505050505060405180910390f35b34801561041857600080fd5b506104c26004803603810190808060600190600380602002604051908101604052809291908260036020028082843782019150505050509192919290803573ffffffffffffffffffffffffffffffffffffffff169060200190929190803590602001908201803590602001908080601f01602080910402602001604051908101604052809392919081815260200183838082843782019150505050505091929192905050506109d8565b005b3480156104d057600080fd5b50610514600480360381019080806060019060038060200260405190810160405280929190826003602002808284378201915050505050919291929050505061106f565b604051808373ffffffffffffffffffffffffffffffffffffffff1673ffffffffffffffffffffffffffffffffffffffff16815260200180602001828103825283818151815260200191508051906020019080838360005b8381101561058657808201518184015260208101905061056b565b50505050905090810190601f1680156105b35780820380516001836020036101000a031916815260200191505b50935050505060405180910390f35b3480156105ce57600080fd5b50610603600480360381019080803573ffffffffffffffffffffffffffffffffffffffff169060200190929190505050611169565b005b60008060016000610615856111d0565b6000191660001916815260200190815260200160002090508060010160009054906101000a900473ffffffffffffffffffffffffffffffffffffffff16915050919050565b6000806001600061066a856111d0565b600019166000191681526020019081526020016000209050600073ffffffffffffffffffffffffffffffffffffffff168160010160009054906101000a900473ffffffffffffffffffffffffffffffffffffffff1673ffffffffffffffffffffffffffffffffffffffff161415915050919050565b6000809054906101000a900473ffffffffffffffffffffffffffffffffffffffff1673ffffffffffffffffffffffffffffffffffffffff163373ffffffffffffffffffffffffffffffffffffffff1614151561073a57600080fd5b6000809054906101000a900473ffffffffffffffffffffffffffffffffffffffff1673ffffffffffffffffffffffffffffffffffffffff167ff8df31144d9c2f0f6b59d69b8b98abd5459d07f2742c4df920b25aae33c6482060405160405180910390a260008060006101000a81548173ffffffffffffffffffffffffffffffffffffffff021916908373ffffffffffffffffffffffffffffffffffffffff160217905550565b6000809054906101000a900473ffffffffffffffffffffffffffffffffffffffff1681565b61080e6114a6565b60006060600060016000600260008867ffffffffffffffff1667ffffffffffffffff16815260200190815260200160002054600019166000191681526020019081526020016000209050806000018160010160009054906101000a900473ffffffffffffffffffffffffffffffffffffffff1682600201826003806020026040519081016040528092919082600380156108f1576020028201916000905b82829054906101000a900467ffffffffffffffff1667ffffffffffffffff16815260200190600801906020826007010492830192600103820291508084116108ac5790505b50505050509250808054600181600116156101000203166002900480601f01602080910402602001604051908101604052809291908181526020018280546001816001161561010002031660029004801561098d5780601f106109625761010080835404028352916020019161098d565b820191906000526020600020905b81548152906001019060200180831161097057829003601f168201915b50505050509050935093509350509193909250565b6109aa6114a6565b600060606109cd600360009054906101000a900467ffffffffffffffff16610806565b925092509250909192565b60008060008060008060009054906101000a900473ffffffffffffffffffffffffffffffffffffffff1673ffffffffffffffffffffffffffffffffffffffff163373ffffffffffffffffffffffffffffffffffffffff16141515610a3b57600080fd5b600073ffffffffffffffffffffffffffffffffffffffff168773ffffffffffffffffffffffffffffffffffffffff1614151515610ae0576040517f08c379a000000000000000000000000000000000000000000000000000000000815260040180806020018281038252601c8152602001807f436f6e747261637420616464726573732069732072657175697265640000000081525060200191505060405180910390fd5b610ae98861065a565b151515610b84576040517f08c379a000000000000000000000000000000000000000000000000000000000815260040180806020018281038252602e8152602001807f476976656e2076657273696f6e20697320616c7265616479207265676973746581526020017f72656420696e207061636b61676500000000000000000000000000000000000081525060400191505060405180910390fd5b610b8d88611331565b151515610c02576040517f08c379a00000000000000000000000000000000000000000000000000000000081526004018080602001828103825260188152602001807f56657273696f6e206d757374206265206e6f6e207a65726f000000000000000081525060200191505060405180910390fd5b610c0b886111d0565b94506060604051908101604052808981526020018873ffffffffffffffffffffffffffffffffffffffff16815260200187815250600160008760001916600019168152602001908152602001600020600082015181600001906003610c719291906114c9565b5060208201518160010160006101000a81548173ffffffffffffffffffffffffffffffffffffffff021916908373ffffffffffffffffffffffffffffffffffffffff1602179055506040820151816002019080519060200190610cd5929190611577565b50905050876000600381101515610ce857fe5b60200201519350600360009054906101000a900467ffffffffffffffff1667ffffffffffffffff168467ffffffffffffffff161115610d5e57876000600381101515610d3057fe5b6020020151600360006101000a81548167ffffffffffffffff021916908367ffffffffffffffff1602179055505b876001600381101515610d6d57fe5b60200201519250876002600381101515610d8357fe5b6020020151915060016000600260008767ffffffffffffffff1667ffffffffffffffff16815260200190815260200160002054600019166000191681526020019081526020016000206000019050610e4a81600380602002604051908101604052809291908260038015610e40576020028201916000905b82829054906101000a900467ffffffffffffffff1667ffffffffffffffff1681526020019060080190602082600701049283019260010382029150808411610dfb5790505b5050505050611331565b80610e965750806001600381101515610e5f57fe5b600491828204019190066008029054906101000a900467ffffffffffffffff1667ffffffffffffffff168367ffffffffffffffff16115b80610f2f5750806001600381101515610eab57fe5b600491828204019190066008029054906101000a900467ffffffffffffffff1667ffffffffffffffff168367ffffffffffffffff16148015610f2e5750806002600381101515610ef757fe5b600491828204019190066008029054906101000a900467ffffffffffffffff1667ffffffffffffffff168267ffffffffffffffff16115b5b15610f655784600260008667ffffffffffffffff1667ffffffffffffffff16815260200190815260200160002081600019169055505b7fc5b9b96b4952fc60f5a916010c882de0324dd4fdfaa999f9ad6947f55d8427628888886040518084600360200280838360005b83811015610fb4578082015181840152602081019050610f99565b505050509050018373ffffffffffffffffffffffffffffffffffffffff1673ffffffffffffffffffffffffffffffffffffffff16815260200180602001828103825283818151815260200191508051906020019080838360005b8381101561102957808201518184015260208101905061100e565b50505050905090810190601f1680156110565780820380516001836020036101000a031916815260200191505b5094505050505060405180910390a15050505050505050565b60006060600060016000611082866111d0565b6000191660001916815260200190815260200160002090508060010160009054906101000a900473ffffffffffffffffffffffffffffffffffffffff1681600201808054600181600116156101000203166002900480601f0160208091040260200160405190810160405280929190818152602001828054600181600116156101000203166002900480156111585780601f1061112d57610100808354040283529160200191611158565b820191906000526020600020905b81548152906001019060200180831161113b57829003601f168201915b505050505090509250925050915091565b6000809054906101000a900473ffffffffffffffffffffffffffffffffffffffff1673ffffffffffffffffffffffffffffffffffffffff163373ffffffffffffffffffffffffffffffffffffffff161415156111c457600080fd5b6111cd816113ac565b50565b60008160006003811015156111e157fe5b60200201518260016003811015156111f557fe5b602002015183600260038110151561120957fe5b6020020151604051602001808467ffffffffffffffff1667ffffffffffffffff1678010000000000000000000000000000000000000000000000000281526008018367ffffffffffffffff1667ffffffffffffffff1678010000000000000000000000000000000000000000000000000281526008018267ffffffffffffffff1667ffffffffffffffff16780100000000000000000000000000000000000000000000000002815260080193505050506040516020818303038152906040526040518082805190602001908083835b6020831015156112fd57805182526020820191506020810190506020830392506112d8565b6001836020036101000a03801982511681845116808217855250505050505090500191505060405180910390209050919050565b60008082600060038110151561134357fe5b602002015167ffffffffffffffff1614801561137c5750600082600160038110151561136b57fe5b602002015167ffffffffffffffff16145b80156113a55750600082600260038110151561139457fe5b602002015167ffffffffffffffff16145b9050919050565b600073ffffffffffffffffffffffffffffffffffffffff168173ffffffffffffffffffffffffffffffffffffffff16141515156113e857600080fd5b8073ffffffffffffffffffffffffffffffffffffffff166000809054906101000a900473ffffffffffffffffffffffffffffffffffffffff1673ffffffffffffffffffffffffffffffffffffffff167f8be0079c531659141344cd1fd0a4f28419497f9722a3daafe3b4186f6b6457e060405160405180910390a3806000806101000a81548173ffffffffffffffffffffffffffffffffffffffff021916908373ffffffffffffffffffffffffffffffffffffffff16021790555050565b606060405190810160405280600390602082028038833980820191505090505090565b82600380016004900481019282156115665791602002820160005b8382111561153057835183826101000a81548167ffffffffffffffff021916908367ffffffffffffffff16021790555092602001926008016020816007010492830192600103026114e4565b80156115645782816101000a81549067ffffffffffffffff0219169055600801602081600701049283019260010302611530565b505b50905061157391906115f7565b5090565b828054600181600116156101000203166002900490600052602060002090601f016020900481019282601f106115b857805160ff19168380011785556115e6565b828001600101855582156115e6579182015b828111156115e55782518255916020019190600101906115ca565b5b5090506115f3919061162e565b5090565b61162b91905b8082111561162757600081816101000a81549067ffffffffffffffff0219169055506001016115fd565b5090565b90565b61165091905b8082111561164c576000816000905550600101611634565b5090565b905600a165627a7a723058208a9378a46b674500b1012bc0b2e7710eff44f9111e47b431c0f92bc171e69c8b0029",
  "source": "pragma solidity ^0.4.24;\n\nimport \"openzeppelin-solidity/contracts/ownership/Ownable.sol\";\n\n/**\n * @title Package\n * @dev A package is composed by a set of versions, identified via semantic versioning,\n * where each version has a contract address that refers to a reusable implementation,\n * plus an optional content URI with metadata. Note that the semver identifier is restricted\n * to major, minor, and patch, as prerelease tags are not supported.\n */\ncontract Package is Ownable {\n  /**\n   * @dev Emitted when a version is added to the package.\n   * @param semanticVersion Name of the added version.\n   * @param contractAddress Contract associated with the version.\n   * @param contentURI Optional content URI with metadata of the version.\n   */\n  event VersionAdded(uint64[3] semanticVersion, address contractAddress, bytes contentURI);\n\n  struct Version {\n    uint64[3] semanticVersion;\n    address contractAddress;\n    bytes contentURI; \n  }\n\n  mapping (bytes32 => Version) internal versions;\n  mapping (uint64 => bytes32) internal majorToLatestVersion;\n  uint64 internal latestMajor;\n\n  /**\n   * @dev Returns a version given its semver identifier.\n   * @param semanticVersion Semver identifier of the version.\n   * @return Contract address and content URI for the version, or zero if not exists.\n   */\n  function getVersion(uint64[3] semanticVersion) public view returns (address contractAddress, bytes contentURI) {\n    Version storage version = versions[semanticVersionHash(semanticVersion)];\n    return (version.contractAddress, version.contentURI); \n  }\n\n  /**\n   * @dev Returns a contract for a version given its semver identifier.\n   * This method is equivalent to `getVersion`, but returns only the contract address.\n   * @param semanticVersion Semver identifier of the version.\n   * @return Contract address for the version, or zero if not exists.\n   */\n  function getContract(uint64[3] semanticVersion) public view returns (address contractAddress) {\n    Version storage version = versions[semanticVersionHash(semanticVersion)];\n    return version.contractAddress;\n  }\n\n  /**\n   * @dev Adds a new version to the package. Only the Owner can add new versions.\n   * Reverts if the specified semver identifier already exists. \n   * Emits a `VersionAdded` event if successful.\n   * @param semanticVersion Semver identifier of the version.\n   * @param contractAddress Contract address for the version, must be non-zero.\n   * @param contentURI Optional content URI for the version.\n   */\n  function addVersion(uint64[3] semanticVersion, address contractAddress, bytes contentURI) public onlyOwner {\n    require(contractAddress != address(0), \"Contract address is required\");\n    require(!hasVersion(semanticVersion), \"Given version is already registered in package\");\n    require(!semanticVersionIsZero(semanticVersion), \"Version must be non zero\");\n\n    // Register version\n    bytes32 versionId = semanticVersionHash(semanticVersion);\n    versions[versionId] = Version(semanticVersion, contractAddress, contentURI);\n    \n    // Update latest major\n    uint64 major = semanticVersion[0];\n    if (major > latestMajor) {\n      latestMajor = semanticVersion[0];\n    }\n\n    // Update latest version for this major\n    uint64 minor = semanticVersion[1];\n    uint64 patch = semanticVersion[2];\n    uint64[3] latestVersionForMajor = versions[majorToLatestVersion[major]].semanticVersion;\n    if (semanticVersionIsZero(latestVersionForMajor) // No latest was set for this major\n       || (minor > latestVersionForMajor[1]) // Or current minor is greater \n       || (minor == latestVersionForMajor[1] && patch > latestVersionForMajor[2]) // Or current patch is greater\n       ) { \n      majorToLatestVersion[major] = versionId;\n    }\n\n    emit VersionAdded(semanticVersion, contractAddress, contentURI);\n  }\n\n  /**\n   * @dev Checks whether a version is present in the package.\n   * @param semanticVersion Semver identifier of the version.\n   * @return true if the version is registered in this package, false otherwise.\n   */\n  function hasVersion(uint64[3] semanticVersion) public view returns (bool) {\n    Version storage version = versions[semanticVersionHash(semanticVersion)];\n    return address(version.contractAddress) != address(0);\n  }\n\n  /**\n   * @dev Returns the version with the highest semver identifier registered in the package.\n   * For instance, if `1.2.0`, `1.3.0`, and `2.0.0` are present, will always return `2.0.0`, regardless \n   * of the order in which they were registered. Returns zero if no versions are registered.\n   * @return Semver identifier, contract address, and content URI for the version, or zero if not exists.\n   */\n  function getLatest() public view returns (uint64[3] semanticVersion, address contractAddress, bytes contentURI) {\n    return getLatestByMajor(latestMajor);\n  }\n\n  /**\n   * @dev Returns the version with the highest semver identifier for the given major.\n   * For instance, if `1.2.0`, `1.3.0`, and `2.0.0` are present, will return `1.3.0` for major `1`, \n   * regardless of the order in which they were registered. Returns zero if no versions are registered\n   * for the specified major.\n   * @param major Major identifier to query\n   * @return Semver identifier, contract address, and content URI for the version, or zero if not exists.\n   */\n  function getLatestByMajor(uint64 major) public view returns (uint64[3] semanticVersion, address contractAddress, bytes contentURI) {\n    Version storage version = versions[majorToLatestVersion[major]];\n    return (version.semanticVersion, version.contractAddress, version.contentURI); \n  }\n\n  function semanticVersionHash(uint64[3] version) internal pure returns (bytes32) {\n    return keccak256(abi.encodePacked(version[0], version[1], version[2]));\n  }\n\n  function semanticVersionIsZero(uint64[3] version) internal pure returns (bool) {\n    return version[0] == 0 && version[1] == 0 && version[2] == 0;\n  }\n}\n",
  "sourcePath": "zos-lib/contracts/application/Package.sol",
  "compiler": {
    "name": "solc",
    "version": "0.4.25+commit.59dbf8f1.Emscripten.clang"
  },
  "schemaVersion": "2.0.2",
  "updatedAt": "2019-02-20T18:21:14.428Z"
}