{
  "fileName": "Sample.sol",
  "contractName": "Base",
  "source": "pragma solidity ^0.6.0;\n\ncontract Base {\n  function basePure() public pure { }\n  function basePayable() public payable { }\n}\n\ncontract Sample is Base {\n  uint256 public value;\n\n  function samplePure(uint256 x) public pure returns (uint256) { return x; }\n  function sampleView() public view returns (uint256) { return value; }\n  function samplePayable() public payable { value = value + 1; }\n  function sampleNonpayable(uint256 x) public { value = value + x; }\n}\n",
  "sourcePath": "contracts/Sample.sol",
  "abi": [
    {
      "inputs": [],
      "name": "basePayable",
      "outputs": [],
      "stateMutability": "payable",
      "type": "function"
    },
    {
      "inputs": [],
      "name": "basePure",
      "outputs": [],
      "stateMutability": "pure",
      "type": "function"
    }
  ],
  "bytecode": "0x6080604052348015600f57600080fd5b5060818061001e6000396000f3fe60806040526004361060265760003560e01c806310c82ddf14602b578063f77df40a14603f575b600080fd5b348015603657600080fd5b50603d6047565b005b60456049565b005b565b56fea2646970667358221220b27de1792583c12c3ac075a9c535f5d05aa936d0924b6652561ab809b1252a4064736f6c63430006020033",
  "compiler": {
    "name": "solc",
    "version": "0.6.2+commit.bacdbe57.Linux.g++",
    "optimizer": {
      "enabled": false,
      "runs": 200
    },
    "evmVersion": "petersburg"
  }
}