{
  "fileName": "MultipleInheritanceInitializableMocks.sol",
  "contractName": "SampleGramps",
  "source": "pragma solidity ^0.6.0;\n\nimport \"./Initializable.sol\";\n\n// Sample contracts showing upgradeability with multiple inheritance.\n// Child contract inherits from Father and Mother contracts, and Father extends from Gramps.\n// \n//         Human\n//       /       \\\n//      |       Gramps\n//      |         |\n//    Mother    Father\n//      |         |\n//      -- Child --\n\n/**\n * Sample base intializable contract that is a human\n */\ncontract SampleHuman is Initializable {\n  bool public isHuman;\n\n  function initialize() initializer virtual public {\n    isHuman = true;\n  }\n}\n\n/**\n * Sample base intializable contract that defines a field mother\n */\ncontract SampleMother is Initializable, SampleHuman {\n  uint256 public mother;\n\n  function initialize(uint256 value) initializer virtual public {\n    SampleHuman.initialize();\n    mother = value;\n  }\n}\n\n/**\n * Sample base intializable contract that defines a field gramps\n */\ncontract SampleGramps is Initializable, SampleHuman {\n  uint256 public gramps;\n\n  function initialize(uint256 value) initializer virtual public {\n    SampleHuman.initialize();\n    gramps = value;\n  }\n}\n\n/**\n * Sample base intializable contract that defines a field father and extends from gramps\n */\ncontract SampleFather is Initializable, SampleGramps {\n  uint256 public father;\n\n  function initialize(uint256 _gramps, uint256 _father) initializer virtual public {\n    SampleGramps.initialize(_gramps);\n    father = _father;\n  }\n}\n\n/**\n * Child extends from mother, father (gramps)\n */\ncontract SampleChild is Initializable, SampleMother, SampleFather {\n  uint256 public child;\n\n  function initialize(uint256 value) initializer override(SampleGramps, SampleMother) public {\n    SampleGramps.initialize(value);\n    SampleMother.initialize(value);\n  }\n\n  function initialize(uint256 _mother, uint256 _gramps, uint256 _father, uint256 _child) initializer public {\n    SampleMother.initialize(_mother);\n    SampleFather.initialize(_gramps, _father);\n    child = _child;\n  }\n}\n",
  "sourcePath": "contracts/initializable/MultipleInheritanceInitializableMocks.sol",
  "abi": [
    {
      "inputs": [],
      "name": "gramps",
      "outputs": [
        {
          "internalType": "uint256",
          "name": "",
          "type": "uint256"
        }
      ],
      "stateMutability": "view",
      "type": "function"
    },
    {
      "inputs": [],
      "name": "initialize",
      "outputs": [],
      "stateMutability": "nonpayable",
      "type": "function"
    },
    {
      "inputs": [
        {
          "internalType": "uint256",
          "name": "value",
          "type": "uint256"
        }
      ],
      "name": "initialize",
      "outputs": [],
      "stateMutability": "nonpayable",
      "type": "function"
    },
    {
      "inputs": [],
      "name": "isHuman",
      "outputs": [
        {
          "internalType": "bool",
          "name": "",
          "type": "bool"
        }
      ],
      "stateMutability": "view",
      "type": "function"
    }
  ],
  "bytecode": "0x608060405234801561001057600080fd5b50610386806100206000396000f3fe608060405234801561001057600080fd5b506004361061004c5760003560e01c80634a6c9db6146100515780638129fc1c14610073578063fa39851f1461007d578063fe4b84df1461009b575b600080fd5b6100596100c9565b604051808215151515815260200191505060405180910390f35b61007b6100dc565b005b6100856101f6565b6040518082815260200191505060405180910390f35b6100c7600480360360208110156100b157600080fd5b81019080803590602001909291905050506101fc565b005b603360009054906101000a900460ff1681565b600060019054906101000a900460ff16806100fb57506100fa61030b565b5b8061011257506000809054906101000a900460ff16155b610167576040517f08c379a000000000000000000000000000000000000000000000000000000000815260040180806020018281038252602e815260200180610323602e913960400191505060405180910390fd5b60008060019054906101000a900460ff1615905080156101b7576001600060016101000a81548160ff02191690831515021790555060016000806101000a81548160ff0219169083151502179055505b6001603360006101000a81548160ff02191690831515021790555080156101f35760008060016101000a81548160ff0219169083151502179055505b50565b60345481565b600060019054906101000a900460ff168061021b575061021a61030b565b5b8061023257506000809054906101000a900460ff16155b610287576040517f08c379a000000000000000000000000000000000000000000000000000000000815260040180806020018281038252602e815260200180610323602e913960400191505060405180910390fd5b60008060019054906101000a900460ff1615905080156102d7576001600060016101000a81548160ff02191690831515021790555060016000806101000a81548160ff0219169083151502179055505b6102df6100dc565b8160348190555080156103075760008060016101000a81548160ff0219169083151502179055505b5050565b6000803090506000813b905060008114925050509056fe436f6e747261637420696e7374616e63652068617320616c7265616479206265656e20696e697469616c697a6564a2646970667358221220011e4d99b8f65aabe8846b5cae075ce4f4c4120304259d0aea01fd3788c4d1db64736f6c63430006020033",
  "compiler": {
    "name": "solc",
    "version": "0.6.2+commit.bacdbe57.Linux.g++",
    "optimizer": {
      "enabled": false,
      "runs": 200
    },
    "evmVersion": "petersburg"
  }
}