{
  "contractName": "GreeterBase",
  "abi": [
    {
      "constant": true,
      "inputs": [],
      "name": "value",
      "outputs": [
        {
          "name": "",
          "type": "uint256"
        }
      ],
      "payable": false,
      "stateMutability": "view",
      "type": "function"
    },
    {
      "anonymous": false,
      "inputs": [
        {
          "indexed": false,
          "name": "greeting",
          "type": "string"
        }
      ],
      "name": "Greeting",
      "type": "event"
    },
    {
      "constant": false,
      "inputs": [
        {
          "name": "_value",
          "type": "uint256"
        }
      ],
      "name": "initialize",
      "outputs": [],
      "payable": false,
      "stateMutability": "nonpayable",
      "type": "function"
    },
    {
      "constant": false,
      "inputs": [
        {
          "name": "_value",
          "type": "uint256"
        }
      ],
      "name": "clashingInitialize",
      "outputs": [],
      "payable": false,
      "stateMutability": "nonpayable",
      "type": "function"
    }
  ],
  "bytecode": "0x608060405234801561001057600080fd5b5061011a806100206000396000f3006080604052600436106053576000357c0100000000000000000000000000000000000000000000000000000000900463ffffffff1680633fa4f245146058578063caedf410146080578063fe4b84df1460aa575b600080fd5b348015606357600080fd5b50606a60d4565b6040518082815260200191505060405180910390f35b348015608b57600080fd5b5060a86004803603810190808035906020019092919050505060da565b005b34801560b557600080fd5b5060d26004803603810190808035906020019092919050505060e4565b005b60005481565b8060008190555050565b80600081905550505600a165627a7a7230582050bfb9f3d164f5840f76efd0daf4f2fc9ca9b933b3c17f79fd2d07f6f1e68e510029",
  "source": "pragma solidity ^0.4.24;\n\ncontract GreeterBase {\n  event Greeting(string greeting);\n\n  uint256 public value;\n\n  function initialize(uint256 _value) public {\n    value = _value;\n  } \n\n  function clashingInitialize(uint256 _value) public {\n    value = _value;\n  } \n}\n",
  "sourcePath": "/path/mock-stdlib-undeployed/contracts/GreeterBase.sol",
  "compiler": {
    "name": "solc",
    "version": "0.4.24+commit.e67f0147.Emscripten.clang"
  },
  "schemaVersion": "2.0.1",
  "updatedAt": "2018-10-11T10:59:50.933Z"
}